:040000000128F92FAB
:1003A000163021009700080021000C110C140800E1
:1003B00023001E0C0139080071082000A1007008FC
:1003C000A000080071082000A5007008A400080023
:1003D00071082000A3007008A20008006A30210004
:1003E0009900980122009601080022000C1CF929AE
:1003F000FA29FC290C15FD290C110800F000200039
:10040000111E032A042AFF29700823009A000800FD
:100410002034773472346F346E3467342034693466
:100420006E347034753474340D3400342000911EF1
:100430001A2A1B2A162AFC0123009D1C202A212A85
:10044000232A1D121D1619080800F200F101721C62
:100450002A2A2B2A2D2A7008F1070310F00D031009
:10046000F20C7208031D352A362A272A7108080063
:1004700054346534733474342034633461347334E5
:10048000653420344634613469346C346534643402
:1004900020340D34003422008C160C1221000C1272
:1004A0008C1623008C0124008C0121009517250057
:1004B0008C01373026008C003F3027008C008430C0
:1004C00022009D0008008131F521823120000C19A5
:1004D0006A2A6B2A732AB030F1008530F20083312A
:1004E0000B2382317A2A3830F1008230F2008331D6
:1004F0000B23823108008131F521823120000C1953
:10050000822A832A8B2AF730F1008530F20083316A
:100510000B238231922A3830F1008230F20083318D
:100520000B23823108008131D421823122000C1446
:100530000C118131F521823122000C1DA02AA12A43
:10054000A92AE330F1008330F20083310B2382319A
:10055000B02A3830F1008230F20083310B2382312F
:1005600008008131D421823122000C100C1181311C
:10057000F521823122000C19BE2ABF2AC72A3F303A
:10058000F1008630F20083310B238231CE2A3830DD
:10059000F1008230F20083310B2382310800813177
:1005A000D421823122000C140C118131F5218231C9
:1005B00020000C1DDC2ADD2AE52A6A30F100853096
:1005C000F20083310B238231EC2A3830F100823083
:1005D000F20083310B23823108008131D421823132
:1005E00022000C100C158131F521823122000C19EA
:1005F000FA2AFB2A032BB730F1008330F200833153
:100600000B2382310A2B3830F1008230F200833123
:100610000B2382310800202B7108840072088500AA
:1006200000088131FE2183310130F1070030F23DB5
:100630008131D8218331003A031D1F2B202B182B29
:1006400071088400720885001200031D282B292BD5
:100650000C2B080020345434653473347434203443
:1006600043346134733465342034533465346C342A
:1006700065346334743469346F346E342034283410
:1006800031342D343134313429343A3420340D347A
:100690000034083023009F0090309D0024309E00DD
:1006A00067309B009C010030F0000030F100813188
:1006B000E22183310030F0000030F1008131E82187
:1006C00083310030F0000030F1008131DC218331D2
:1006D000FC0108008131D421833122000C140C115B
:1006E0000330F5008A30F4005630890B752BF40B7B
:1006F000752BF50B752B8131F521833122000C1DF3
:10070000822B832B8A2BB230F1008430F2008331AC
:100710000B23833108003F34203454346534733460
:1007200074342034433461347334653420343534C4
:1007300020345034613473347334653464343A345F
:1007400020345234613470346934643420344D348C
:100750006F34743469346F346E3420344334683405
:1007600061346E346734653473340D3400343F348F
:100770002034543465347334743420344334613455
:10078000733465342034323420345034613473345B
:100790007334653464343A3420344E346F34203446
:1007A0004D346F34743469346F346E3420343D34D6
:1007B0003E3420344C344534443420344F344634B1
:1007C00046340D3400343F342034543465347334AB
:1007D0007434203443346134733465342034313418
:1007E00020345034613473347334653464343A34AF
:1007F00020344D346F34743469346F346E342034A3
:100800004434653474346534633474346534643426
:1008100020343D343E3420344C3445344434203488
:100820004F344E340D340034F501F6018131D421BA
:10083000843122000C140C11242C0130F5070030F7
:10084000F63D8231932284317608803AF40080307C
:100850007402031D2D2C0B307502031C302C312C1F
:100860001D2C22000C1D352C362C3E2CEE30F100B8
:100870008430F20083310B238431452C3830F10071
:100880008230F20083310B2384310800F501F60138
:100890008131D421843122000C140C11562C0130EA
:1008A000F5070030F63D8231932284317608803A94
:1008B000F40080307402031D5F2C0B307502031CA2
:1008C000622C632C4F2C22000C19672C682C702C86
:1008D0002A30F1008530F20083310B238431772CEC
:1008E0003830F1008230F20083310B23843108006C
:1008F0003F342034543465347334743420344334F6
:1009000061347334653420343834203450346134E5
:1009100073347334653464343A3420345334683473
:100920006F347234743420347334703469346B34FB
:100930006534203469346E342034503449345234B0
:10094000203449346E347034753474342034643453
:1009500065347434653463347434653464342034F9
:100960000D3400343F3420345434653473347434DB
:1009700020344334613473346534203439342034C2
:100980005034613473347334653464343A3420340D
:100990004D346F34743469346F346E3420344434DD
:1009A00065347434653463347434653464342034A9
:1009B00061346634743465347234203444346534BC
:1009C0006C34613479343D343E3420344C34453415
:1009D000443420344F344E340D3400343F3420340A
:1009E0005434653473347434203443346134733490
:1009F00065342034373420345034613473347334E4
:100A0000653464343A34203443346F346E3474348F
:100A100069346E3475346F347534733420344D3426
:100A20006F34743469346F346E3420344434653434
:100A300074346534633474346534643420343D3440
:100A40003E3420344C344534443420344F344E3416
:100A50000D3400343F3420345434653473347434EA
:100A600020344334613473346534203436342034D4
:100A70005034613473347334653464343A3420341C
:100A800043346F346E34743469346E3475346F3477
:100A90007534733420344E346F3420344D346F3415
:100AA000743469346F346E342034443465347434AF
:100AB0006534633474346534643420343D343E34F6
:100AC00020344C344534443420344F344634463496
:100AD0000D3400343F34203454346534733474346A
:100AE0002034433461347334653420343434203456
:100AF0005034613473347334653464343A3420349C
:100B00004D346F34743469346F346E34203444346B
:100B10006534743465346334743465346434203437
:100B200061346634743465347234203469346E341C
:100B300069347434693461346C3469347A346134BE
:100B4000743469346F346E3420343D343E34203490
:100B50004C344534443420344F344E340D34003456
:100B60003F34203454346534733474342034433483
:100B700061347334653420343134303420345034AB
:100B8000613473347334653464343A3420344E340D
:100B90006F3420344D346F34743469346F346E34B0
:100BA00020344434653474346534633474346534C7
:100BB0006434203475346E3463346F346E34663488
:100BC0006934673475347234653464342034703475
:100BD00069346E3420343D343E3420344C34453452
:100BE000443420344F34463446340D3400343F34DA
:100BF00020345434653473347434203443346134D1
:100C00007334653420343134313420345034613419
:100C100073347334653464343A3420344E346F346E
:100C200020344D346F34743469346F346E3420346E
:100C300044346534743465346334743465346434F2
:100C4000203450344934523420346E346F34743488
:100C5000203463346F346E346E34653463347434EA
:100C60006534643420343D343E3420344C344534CF
:100C7000443420344F34463446340D3400343F3449
:100C80002034543465347334743420344334613440
:100C90007334653420343334203450346134733445
:100CA0007334653464343A3420344E346F34203431
:100CB0004D346F34743469346F346E3420344434BA
:100CC0006534743465346334743465346434203486
:100CD00061346634743465347234203469346E346B
:100CE00069347434693461346C3469347A3461340D
:100CF000743469346F346E3420343D343E342034DF
:100D00004C344534443420344F34463446340D3466
:100D100000348131D421863122000C148131F52137
:100D2000863122000C0C890C0139F400F50174089D
:100D3000F6007508F70021000C1022000C102100AD
:100D40000C148131F5218631031022000C1D03148F
:100D50000030093DF400F5017408F8007508F90049
:100D60000C148131F521863122000C0C890C0139DB
:100D7000F400F5017408FA007508FB0076087704A2
:100D80000319C32EC42ED82E780879040319C92E4E
:100D9000CA2ED82E7A087B040319CF2ED02ED82E37
:100DA0008B30F1008330F20083310B238631DF2E4C
:100DB0003830F1008230F20083310B238631080095
:100DC0008131D421863122000C108131F521863108
:100DD000031022000C1D03140030093DF400F5013E
:100DE0007408F6007508F70021000C1022000C149E
:100DF00021000C148131F521863122000C0C890C64
:100E00000139F400F5017408F8007508F9000C10B8
:100E10008131F5218631031022000C1D03140030AE
:100E2000093DF400F5017408FA007508FB00760826
:100E3000770403191C2F1D2F312F7808790403190B
:100E4000222F232F312F7A087B040319282F292FD3
:100E5000312F7830F1008430F20083310B2386315A
:100E6000382F3830F1008230F20083310B23863185
:100E7000080000302000A7000030A8000030A900C2
:100E800082314B2287318131EE2187318131D0216E
:100E900087318331492387312000A701A801A901A7
:100EA000AA012A30F1008330F20083310B2387310D
:100EB00020002A08273E86008701823116228731CA
:100EC000810020002A08273E860087013130010278
:100ED000031C6B2F6C2F762F2A08273E8600870174
:100EE0003A300102031C752F762F802F2A08273EE7
:100EF0008600870161300106031D7F2F802F822F1E
:100F00000130AA072A08FF3E273E8600870161308C
:100F10000106031D8C2F8D2F582F61302806031DCD
:100F2000922F932F962F2708A600D52F0A30F00076
:100F3000270882312522873120002807F03EA600AD
:100F4000D52F8231932287314C2F8231ED22873188
:100F50004C2F8231B12287314C2F8231CF22873101
:100F60004C2F8631892687314C2F84314624873196
:100F70004C2F8431142487314C2F8631E026873161
:100F80004C2F83316A2387314C2F82316322873182
:100F90004C2F82317B2287314C2F0830F100823078
:100FA000F20083310B2387314C2F26080A3A0319AC
:100FB000C52F013A0319C92F3A3A0319A12F033A51
:100FC0000319A52F013A0319A92F073A0319AD2FC9
:100FD000013A0319B12F033A0319B52F013A031946
:100FE000B92F0F3A0319BD2F013A0319C12FCD2F85
:100FF0000128FC012000AB01AC01AD012000392F1C
:020000040001F9
:08000000FF3FFF3FFF3FFF3F00
:04000E00E43FFF3E8E
:00000001FF
