:040000000128FD2FA7
:1005E20023001E0C0139080020000C0E890C013971
:1005F200080071082000A1007008A000080071081E
:100602002000A5007008A400080071082000A300C3
:100612007008A20008006A302100990098012200A7
:1006220096010800A03021009E009F019B019C01C1
:1006320001309D000800F0002000111E212B222B0A
:100642001D2B700823009A000800833021009D05AD
:100652009D149D1C2D2B2E2B2A2B1C08F1001B08F0
:10066200F000080021001D08833904389D009D1404
:100672009D1C3C2B3D2B392B1C08F1001B08F00064
:10068200080043346F346E3464346934743469342A
:100692006F346E3420344E346F34743420344D341D
:1006A200653474340D3400344D346F347434693429
:1006B2006F346E34203444346534743465346334B6
:1006C200743465346434203469346E3420344434F0
:1006D200613472346B340D34003422008C160C12E7
:1006E2000C1121000C128C120C108C100C11033006
:1006F20023008C0024008C012100951725008C0119
:10070200373026008C003F3027008C000430220056
:100712009D0008008331262383317108FB00700895
:10072200FA008331332383317108F9007008F8002D
:100732008231F5228331FC008531F2258331D730B5
:10074200F1008430F2008431732483310800833154
:10075200262383317108FB007008FA0083313323AA
:1007620083317108F9007008F8008231F522833173
:10077200FC008531F22583312130F1008530F20011
:100782008431732483310800833126238331710835
:10079200FB007008FA008331332383317108F900BA
:1007A2007008F8008231F5228331FC008531F22590
:1007B2008331FB30F1008430F200843173248331C1
:1007C20008008331262383317108FB007008FA0088
:1007D2008331332383317108F9007008F8008231C4
:1007E200F5228331FC008531F22583314830F10056
:1007F2008530F2008431732483310800833126234B
:1008020083317108FB007008FA008331332383318E
:100812007108F9007008F8008231F5228331FC007A
:100822008531F22583317B30F1008630F20084314C
:100832007324833108008331262384317108FB003D
:100842007008FA008331332384317108F90070088B
:10085200F8008231F5228431FC008531F2258431A1
:100862009B30F1008530F20084317324843108001A
:100872008331262384317108FB007008FA0083312A
:10088200332384317108F9007008F8008231F522AF
:100892008431FC008531F22584314D30F1008630FF
:1008A200F200843173248431080083312623843199
:1008B2007108FB007008FA00833133238431710818
:1008C200F9007008F8008231F5228431FC0085318C
:1008D200F2258431B330F1008430F2008431732484
:1008E20084310800882C7108840072088500000891
:1008F20083311C2384310130F1070030F23D823113
:10090200F1228431003A031D872C882C802C710837
:100912008400720885001200031D902C912C742C07
:100922000800083023009F0080309D0024309E0084
:1009320067309B009C010030F0000030F1008331F1
:10094200002384310030F0000030F10083310623AF
:1009520084310030F0000030F1008231FA2284311B
:10096200FD0108003F34203449344E3454345F349E
:10097200543443345F3431343034203450346134AD
:1009820073347334653464343A3420344F346E34FF
:10099200653420344C344434523420344634613487
:1009A20075346C34743479340D3400343F3420346B
:1009B20049344E3454345F34543443345F34303425
:1009C20031342034503461347334733465346434D4
:1009D2003A3420344D346F34743469346F346E34A5
:1009E200203469346E3420344434613472346B34CC
:1009F2000D3400343F34203449344E3454345F349F
:100A0200543443345F34303433342034503461341A
:100A120073347334653464343A3420344D346F346F
:100A2200743469346F346E34203469346E34203453
:100A32004234723469346734683474340D340034A7
:100A42003F34203449344E3454345F3454344334C4
:100A52005F3430343234203450346134733473347C
:100A6200653464343A3420344E346F3420344D3497
:100A72006F34743469346F346E34203469346E34B4
:100A820020344434613472346B340D3400343F34D6
:100A9200203449344E3454345F34543443345F3454
:100AA2003034343420345034613473347334653424
:100AB20064343A3420344E346F3420344D346F343D
:100AC200743469346F346E34203469346E342034B3
:100AD2004234723469346734683474340D34003407
:100AE2003F34203449344E3454345F345434433424
:100AF2005F343034353420345034613473347334D9
:100B0200653464343A342034523461347034693494
:100B1200643420344D346F34743469346F346E3439
:100B2200203469346E3420344434613472346B348A
:100B32000D3400343F34203449344E3454345F345D
:100B4200543443345F3430343734203450346134D5
:100B520073347334653464343A34203442346F3439
:100B62006F347434203477342F3420344D346F345E
:100B7200743469346F346E3420342634203444346F
:100B8200613472346B340D3400343F3420344934D0
:100B92004E3454345F34543443345F343134323459
:100BA20020345034613473347334653464343A34E9
:100BB2002034523461347034693464342034503413
:100BC200493452342034263420344C3444345234A0
:100BD200203454346F34673467346C3465340D34E4
:100BE200003403307B02213003197A02031CFA2DF0
:100BF200FB2D142E03307902213003197802031CD5
:100C0200032E042E142E7C080319082E092E142EEE
:100C12005530F1008330F200843173248531220093
:100C22000C158C141E2E4230F1008330F2008431F8
:100C32007324853122000C118C1008008331262385
:100C420086317108FB007008FA0083313323863144
:100C52007108F9007008F8008231F5228631FC0033
:100C62000130FC008531F22586310330F5008A30EF
:100C7200F4005630890B3B2EF40B3B2EF50B3B2E2A
:100C8200FC018531F2258631DE30F1008630F2003A
:100C920084317324863108003F34203449344E3481
:100CA20054345F34543443345F3430343834203471
:100CB2005034613473347334653464343A342034D8
:100CC20042346F346F347434203477342F34203408
:100CD2004E346F3420344D346F34743469346F348D
:100CE2006E342034263420344434613472346B340C
:100CF2000D3400343F34203449344E3454345F349C
:100D0200543443345F343034363420345034613414
:100D120073347334653464343A342034503449348F
:100D2200523420344E346F34693473346534203491
:100D3200493467346E346F34723465346434203429
:100D420069346E342034423472346934673468341E
:100D520074340D34003483316E238631833113238E
:100D6200863183310C23863184319224863183315A
:100D72008B2386318331A82386318331C523863183
:100D82008331E22386318731BF2786318331FF23C6
:100D9200863184311C24863184313924863187316D
:100DA2004727863184315624863186311F26863183
:100DB200873183278631DC2E01283F3420344934A1
:100DC2004E3454345F34543443345F343134313428
:100DD20020345034613473347334653464343A34B7
:100DE2002034523465346C346134793420344F34D5
:100DF2004634463420346134663474346534723493
:100E020020344D346F34743469346F346E3420348A
:100E1200533474346F34703473340D3400343F34CB
:100E2200203449344E3454345F34543443345F34C0
:100E3200303439342034503461347334733465348B
:100E420064343A34203449346E3474346534723440
:100E52006D3469347434743465346E3474342034CB
:100E62004D346F34743469346F346E342F345634E5
:100E720061347234793469346E34673420344C34DA
:100E820069346734683474340D340034F601F70180
:100E92008331262387317108FB007008FA00833101
:100EA200332387317108F9007008F8008231F52286
:100EB2008731FC008531F22587310230F50086301A
:100EC200F4009930890B632FF40B632FF50B632F1A
:100ED20000000130F6070030F73D7708803AF40051
:100EE20080307402031D772F03307602031C7A2FA1
:100EF2007B2F492F1030F1008730F20084317324A8
:100F020087310800F601F701833126238731710802
:100F1200FB007008FA008331332387317108F9002E
:100F22007008F8008231F5228731FC008531F22504
:100F320087310230F5008630F4009930890B9F2FFB
:100F4200F40B9F2FF50B9F2F00000130F6070030A6
:100F5200F73D7708803AF40080307402031DB32F06
:100F620003307602031CB62FB72F852FC630F1004F
:100F72008530F200843173248731080083312623BF
:100F820087317108FB007008FA00833133238731FF
:100F92007108F9007008F8008231F5228731FC00EF
:100FA2008531F22587310230F5000430F400BA3081
:100FB200890BD92FF40BD92FF50BD92F0032FC0155
:100FC2008531F22587310230F5000430F400BA3061
:100FD200890BE92FF40BE92FF50BE92F00320130D1
:100FE200FC008531F22587317130F1008530F20045
:0E0FF2008431732487310800FD012000AC2EED
:020000040001F9
:08000000FF3FFF3FFF3FFF3F00
:04000E00E43FFF3E8E
:00000001FF
