:020000001928BD
:100008007E1480310B1F09280A2817282100111C8B
:100018000E280F2817282000111C13281428172829
:100028008131152180317E1009001A28F801F90163
:10003800FA012000AD01AE01AF017E1020009E281C
:10004800803155208031003A03192B282C284B2861
:100058007A08031D3028312854288131C72180317E
:10006800003A03193828392841288131CB218031B9
:100078000130FA0022008C1654288131D1218031B8
:1000880081318A218031FA0122008C125428813171
:10009800D121803181318A218031FA0122008C12EC
:1000A80008008031FE20803175082000A9007408FE
:1000B800A8008031E720803175082000AB00740863
:1000C800AA00AC0101302902F53003192802031CEB
:1000D8006E286F287A2801302B02F53003192A027E
:1000E800031C772878287A280130AC002C080800EF
:1000F800083023009F0080309D0024309E00673028
:100108009B009C010030F2000030F3008131AC21EB
:1001180080310030F2000030F3008131A6218031B7
:100128000030F2000030F3008131B221803120002C
:10013800AF01080081313F2180318B170B178131C6
:100148002B2180318031242080310230F7000430A7
:10015800F600BA30890BAE28F60BAE28F70BAE289E
:100168000032A628192820009901F83097006E302F
:10017800960011101708F9001608F800210011144C
:10018800D430F2000130F3008131A0218031F13008
:1001980020009800080022008C011F3021008C00EC
:1001A800033023008C0024008C01210095172500C2
:1001B8008C01373026008C003F3027008C0004303B
:1001C80022009D0008000130813174218031813185
:1001D800CE218031813199218031003A0319F528E7
:1001E800F628EE288131B82180317308F5007208AD
:1001F800F400080000308131742180318131CE2132
:100208008031813199218031003A03190C290D2957
:1002180005298131B82180317308F5007208F4008E
:100228000800200011107908F1007808F0008131E9
:10023800632181312000200821040319242925295C
:100248002A2921088A0020080A0081310800813102
:10025800D121813121008C1225008C12031022003B
:100268008C1E0314031839293C2922008C163E29B8
:1002780022008C1208008031CF20813181319221F7
:1002880081318131C32181318131812181318031B5
:10029800B720813180317C20813108002000181D71
:1002A800562957295E291810730897007208960076
:1002B8001814622973089700720896000800200035
:1002C800181D672968296F29181071089700700888
:1002D8009600181473297108970070089600080092
:1002E800F3007308F200F20DF20D21001D087206EA
:1002F800833972069D001D140800A03021009E005D
:100308009F019B019C0101309D0008007908F300C2
:100318007808F200813152218131080068302100CB
:1003280099009801220096010800031021009D1CE5
:1003380003140030093D080073082000A10072086A
:10034800A000080073082000A5007208A400080097
:1003580073082000A7007208A60008007308200090
:10036800A3007208A200080021001C08F3001B0863
:10037800F200080020000C0C890C01390800163026
:100388002100970008008131BE218131080020003A
:100398001814080021009D140800200018100800F7
:0403A800FA0108004E
:020000040001F9
:08000000FF3FFF3FFF3FFF3F00
:04000E00E43FFF3E8E
:00000001FF
