:040000000128F52FAF
:1000B600163021009700080023001E0C01390800A5
:1000C60071082000A9007008A80008007108200027
:1000D600AD007008AC00080071082000AB00700885
:1000E600AA0008006A3021009900980122009601B2
:1000F6000800F0002000111E812882287D28700843
:1001060023009A0008002034773472346F346E343A
:100116006734203469346E347034753474340D3475
:1001260000342000911E982899289428A7012300BE
:100136009D1C9E289F28A1281D121D16190808001F
:100146004C34443452345F34543443345F343034A2
:10015600393420344634613469346C34653464345B
:100166000D3400344C34443452345F345434433404
:100176005F343034383420344634613469346C3476
:10018600653464340D3400344C34443452345F34B2
:10019600543443345F343034373420344634613495
:1001A60069346C34653464340D3400344C3444346E
:1001B60052345F34543443345F343034363420346C
:1001C6004634613469346C34653464340D34003437
:1001D6004C34443452345F34543443345F34303412
:1001E600353420344634613469346C3465346434CF
:1001F6000D3400344C34443452345F345434433474
:100206005F343034343420344634613469346C34E9
:10021600653464340D3400344C34443452345F3421
:10022600543443345F343134333420344634613407
:1002360069346C34653464340D3400344C344434DD
:1002460052345F34543443345F34303433342034DE
:100256004634613469346C34653464340D340034A6
:100266004C34443452345F34543443345F34313480
:10027600323420344634613469346C346534643441
:100286000D3400344C34443452345F3454344334E3
:100296005F343034323420344634613469346C345B
:1002A600653464340D3400344C34443452345F3491
:1002B600543443345F343134313420344634613479
:1002C60069346C34653464340D3400344C3444344D
:1002D60052345F34543443345F3430343134203450
:1002E6004634613469346C34653464340D34003416
:1002F6004C34443452345F34543443345F343134F0
:10030600303420344634613469346C3465346434B2
:100316000D340034F200F101721C922993299529BB
:100326007008F1070310F00D0310F20C7208031D9C
:100336009D299E298F297108080022008C160C120F
:100346000C1121000C128C160C1123008C012400B8
:100356008C012100951725008C01373026008C0072
:100366003F3027008C00843022009D000800CF29F2
:100376007108840072088500000880317C20813174
:100386000130F1070030F23D80315F208131003AC3
:10039600031DCE29CF29C72971088400720885005C
:1003A6001200031DD729D829BB290800203454344C
:1003B60065347334743420344334613473346534AF
:1003C6002034533465346C3465346334743469349E
:1003D6006F346E342034283431342D343134333490
:1003E60029343A3420340D340034083023009F0079
:1003F60090309D0024309E0067309B009C010030A9
:10040600F0000030F1008031692081310030F000C9
:100416000030F10080316F2081310030F000003073
:10042600F1008031632081312000A70108003F34AC
:1004360020344C34443452345F34543443345F34BF
:100446003034363420345034613473347334653484
:1004560064343A3420344F346E34653420344C34AA
:100466004434523420344F34623473347434723426
:10047600753463347434653464340D3400343F3475
:1004860020344C34443452345F34543443345F346F
:100496003034383420345034613473347334653432
:1004A60064343A34203447347234613464347534F5
:1004B60061346C3420344C346934673468347434B1
:1004C60020344334683461346E34673465340D3413
:1004D60000343F3420344C34443452345F34543482
:1004E60043345F343034343420345034613473341C
:1004F6007334653464343A34203442346F3474349B
:10050600683420344C3444345234733420346934DF
:100516006E3420344434613472346B346E34653452
:10052600733473340D3400343F3420344C34443443
:1005360052345F34543443345F34313432342034EB
:100546005034613473347334653464343A3420344B
:1005560046346934783465346434203476347334FC
:1005660020344334683461346E34673469346E340D
:10057600673420344C34443452340D3400343F3420
:1005860020344C34443452345F34543443345F346E
:100596003034323420345034613473347334653437
:1005A60064343A3420344C344434523431342034B4
:1005B6004434613472346B342C3420344C34443437
:1005C60052343234203442347234693467346834F5
:1005D60074340D3400343F3420344C3444345234B3
:1005E6005F34543443345F3430343334203450343D
:1005F600613473347334653464343A3420344C349F
:1006060044345234313420344234723469346734D9
:10061600683474342C3420344C34443452343234F8
:1006260020344434613472346B340D3400343F3436
:1006360020344C34443452345F34543443345F34BD
:100646003034373420345034613473347334653481
:1006560064343A342034533465346E3473346F342E
:10066600723420344E346F34693473346534203434
:1006760054346F346C346534723461346E3463349C
:1006860065340D3400343F3420344C344434523411
:100696005F34543443345F3430343534203450348A
:1006A600613473347334653464343A3420344234F8
:1006B6006F347434683420344C34443452347334D4
:1006C600203469346E3420344234723469346734E9
:1006D600683474346E346534733473340D340034D2
:1006E6003F3420344C34443452345F34543443342D
:1006F6005F343034313420345034613473347334DD
:10070600653464343A342034453471347534613494
:100716006C3420344C34693467346834743420348F
:100726006F346E34203442346F3474346834203479
:100736004C344434523473340D3400346430200065
:10074600A5000030A6008430A3000330A4002608CC
:10075600F1002508F0002408F3002308F200053014
:10076600F4008631DE268331003A031DBB2BBC2BF9
:10077600C62BEE30F1008230F2008131BA2183318E
:1007860022000C15CF2B2130F1008130F20081318F
:10079600BA21833122000C11080084302000A50004
:1007A6000330A6006430A3000030A4002608F10040
:1007B6002508F0002408F3002308F2000530F400B1
:1007C6008631DE268331003A031DEA2BEB2BF52B0F
:1007D600C230F1008230F2008131BA218331220029
:1007E6000C15FE2B4530F1008130F2008131BA2123
:1007F600833122000C11080032302000A5000030A1
:10080600A6003030A3000030A4002608F100250819
:10081600F0002408F3002308F2000530F4008631C6
:10082600DE268331003A0319192C1A2C242C463063
:10083600F1008330F2008131BA21833122000C1598
:100846002D2CEB30F1008030F2008131BA2183315A
:1008560022000C110800D4302000A5000330A600A9
:10086600D930A3000330A4002608F1002508F000C3
:100876002408F3002308F2000530F4008631DE2652
:100886008431003A0319482C492C532C6C30F10062
:100896008230F2008131BA21843122000C155C2CA1
:1008A600FD30F1008030F2008131BA21843122001E
:1008B6000C1108005E302000A5000130A600623051
:1008C600A3000130A4002608F1002508F000240842
:1008D600F3002308F2000330F4008631DE2684316B
:1008E600003A0319772C782C822C3430F1008630AC
:1008F600F2008131BA21843122000C158B2C7B3019
:10090600F1008130F2008131BA21843122000C11CC
:10091600080052302000A5000330A6005C30A3007A
:100926000330A40003302602213003192502031CDC
:100936009D2C9E2CB12C0330240221300319230256
:10094600031CA62CA72CB12C6530F1008630F200D2
:100956008131BA21843122000C15BA2C0F30F100F6
:100966008130F2008131BA21843122000C11080055
:10097600F4302000A5000130A600F430A3000130B9
:10098600A4002608F1002508F0002408F300230837
:10099600F2000530F4008631DE268431003A031970
:1009A600D52CD62CE02C7330F1008330F200813147
:1009B600BA21843122000C15E92C6930F10081300E
:1009C600F2008131BA21843122000C110800F43082
:1009D6002000A5000130A600FF30A3000330A400CC
:1009E6002608F1002508F0002408F3002308F20089
:1009F6000530F4008631DE268431003A031D042DCD
:100A0600052D0F2D0430F1008630F2008131BA2118
:100A1600843122000C15182D5730F1008130F20078
:100A26008131BA21843122000C1108009030200057
:100A3600A5000130A6009530A3000130A4002608C9
:100A4600F1002508F0002408F3002308F200053021
:100A5600F4008631DE268531003A0319332D342D14
:100A66003E2D4230F1008230F2008131BA218531CB
:100A760022000C15472DB530F1008030F20081318F
:100A8600BA21853122000C110800C8302000A500CB
:100A96000030A600C630A3000030A4002608F100EE
:100AA6002508F0002408F3002308F2000530F400BE
:100AB6008631DE268531003A0319622D632D6D2DB0
:100AC600D530F1008530F2008131BA21853122001E
:100AD6000C15762DA330F1008030F2008131BA2159
:100AE600853122000C11080064302000A50000307A
:100AF600A6006830A3000030A4002608F1002508EF
:100B0600F0002408F3002308F2000530F4008631D3
:100B1600DE268531003A0319912D922D9C2D1A302F
:100B2600F1008330F2008131BA21853122000C15A3
:100B3600A52DC730F1008030F2008131BA21853110
:100B460022000C110800B6302000A5000330A600D4
:100B56002C30A3000130A4002608F1002508F0007F
:100B66002408F3002308F2000530F4008631DE265F
:100B76008531003A031DC02DC12DCB2D1A30F10051
:100B86008230F2008131BA21853122000C15D42D34
:100B9600D930F1008030F2008131BA21853122004E
:100BA6000C1108003F3420344C34443452345F3442
:100BB600543443345F34303439342034503461345F
:100BC60073347334653464343A34203449346E34BF
:100BD6007434653472346D34693474347434653401
:100BE6006E34743420344C34693467346834743465
:100BF600203453346F3475347234633465340D34B1
:100C060000343F3420344C34443452345F3454344A
:100C160043345F34313431342034503461347334E6
:100C26007334653464343A3420344F346E34653466
:100C360020344634613475346C3474347934203459
:100C4600533465346E3473346F3472342034443420
:100C560065347434653463347434653464340D3403
:100C660000343F3420344C34443452345F345434EA
:100C760043345F3431343034203450346134733487
:100C86007334653464343A34203444347234693409
:100C9600663474342034433461346C3469346234D9
:100CA60072346134743469346F346E34203454349D
:100CB6006F346C346534723461346E346334653445
:100CC6000D3400343F3420344C34443452345F34D1
:100CD600543443345F343134333420345034613443
:100CE60073347334653464343A34203444346134B0
:100CF60072346B346E346534733473342034543444
:100D0600683472346534733468346F346C346434E4
:100D160020344C346F3467346934633420345434AB
:100D260072346934673467346534723465346434D4
:100D36000D340034F4302000A3000130A400EF305D
:100D4600FC000130FD007D082000A6007C08A500FF
:100D56002608F1002508F0002408F3002308F20015
:100D66000330F4008631DE268631003A031DBC2EA0
:100D7600BD2EC72E3330F1008130F2008131BA2109
:100D8600863122000C11DD2E0130FC070030FD3DBE
:100D960001307D02FA3003197C02031CD32ED42EB7
:100DA600A62E9730F1008230F2008131BA218631C9
:100DB60022000C15080071087302031DE42E70084A
:100DC6007202031CE72EE82E022F70087202F5004D
:100DD6007108733BF6007408F7007608031DF52EBC
:100DE600750877020318F82EFA2E0130FB2E003014
:100DF600F800F9017808FA007908FB001B2F720841
:100E06007002F5007308713BF6007408F700760867
:100E1600031D0F2F750877020318122F142F0130A8
:100E2600152F0030F800F9017808FA007908FB0060
:100E36007A087B04031D202F222F0130232F003038
:100E4600080000302000AF000030B0000030B100D4
:100E56008131A021873180317520873180315B2037
:100E660087318131F82187312000AF01B001B1010E
:100E7600B201D930F1008130F2008131BA218731D7
:100E8600200032082F3E860087018031942087316A
:100E96008100200032082F3E860087013130010292
:100EA600031C562F572F612F32082F3E86008701CD
:100EB6003A300102031C602F612F6B2F32082F3E40
:100EC6008600870161300106031D6A2F6B2F6D2F87
:100ED6000130B2073208FF3E2F3E8600870161309F
:100EE6000106031D772F782F432F61303006031D2F
:100EF6007D2F7E2F822F2F08D03EAE00CB2F0A30BB
:100F0600F0002F0881318D21873120003007F03E17
:100F1600AE00CB2F8431BB248731372F8331D023CA
:100F26008731372F8331A1238731372F84312E2400
:100F36008731372F8331FF238731372F8531A62518
:100F46008731372F853177258731372F8531192519
:100F56008731372F853148258731372F84315D24F6
:100F66008731372F8431EA248731372F86319D2602
:100F76008731372F84318C248731372F8630F10023
:100F86008030F2008131BA21873122000C11372FCF
:100F96002E08013A03198D2F033A0319912F013AAE
:100FA6000319952F073A0319992F013A03199D2F13
:100FB600033A0319A12F013A0319A52F0F3A031972
:100FC600A92F013A0319AD2F033A0319B12F013A9C
:100FD6000319B52F073A0319B92F013A0319BD2F83
:100FE600C12F01282000A001A101A201A301A40193
:0A0FF600A501A601A7012000242F89
:020000040001F9
:08000000FF3FFF3FFF3FFF3F00
:04000E00E43FFF3E8E
:00000001FF
