:020000001328C3
:100008007E1480318B1E09280A2811280B1D0D2803
:100018000E2811288631972680317E100900142871
:10002800210087311E278031E00087311F2780316A
:10003800E1002200873120278031E9002000E90112
:10004800EA01EB01EC01ED01A030840000308500ED
:100058002C308631F62680317E10200033288631F8
:10006800732680313530F1008630F200863108265B
:10007800803121008C1200302200E7000030E600B9
:100088000030E5000030E400853106258031003A73
:10009800031D4F2851280130522800302200E80063
:1000A8006B302000E0008530E10022006808200065
:1000B800E700E8016708E2006808E30020308531BE
:1000C8004B2580312030F1000130F20086310826BE
:1000D800803100308531BD25803171082200E10072
:1000E8007008E00007302000E7007D30890B7A288F
:1000F800E70B7A2802308531BD258031710822004E
:10010800E3007008E20007302000E7007D30890B2B
:100118008B28E70B8B284A302000E0008630E1006E
:10012800220061082000E300220060082000E200AD
:10013800220063082000E500220062082000E40095
:10014800203085314B2580312030F1000130F2001C
:10015800863108268031023022006102EF3003190F
:100168006002031CB828B928132902306302EF3053
:1001780003196202031CC128C22813296808031D39
:10018800C628C728EF288C16E801E80AC030F10015
:100198008630F20086310826803164308631862622
:1001A8008031220069030319DA28DB28EF28F201DD
:1001B800F20A8030F3000730F400013083312D2338
:1001C8008031D730F1008530F20086310826803141
:1001D8002200E901E90A6430843164248031003A5C
:1001E8000319F728F828382922008C12E801690831
:1001F8000319FF2800293829F2018030F30007305D
:10020800F400013083312D238031A330F100853093
:10021800F2008631082680312200E9013829680376
:10022800031D1729182938298C12E8011F30F100FD
:100238008630F200863108268031220069080319C9
:10024800262927293829F2018030F3000730F400E5
:10025800013083312D238031A330F1008530F20045
:10026800863108268031102982302000E700DD30F1
:10027800890B3C29E70B3C2900326D281328200004
:10028800BB006A08803AB80080303802031D4E2946
:1002980001306902031851295229582901302000D8
:1002A800BC000030BD005D2920006A08BD00690857
:1002B800BC00210029082000BA00210028082000DD
:1002C800B9003008BE003108BF003208C00033084A
:1002D800C1003408C2003508C3003608C400370816
:1002E800C5001F30C6000030C7002100CB01DA2945
:1002F800FF302000C607FF30C73D4608AC3E8600E9
:1003080087010A30A000A101A201A301A401A5014F
:10031800A601A7013E08A8003F08A9004008AA00B6
:100328004108AB004208AC004308AD004408AE00E9
:100338004508AF008331A223813120002008303ED8
:100348008100FF30BC07FF30BD3DFF30B907FF30EB
:10035800BA3D0A30A000A101A201A301A401A50190
:10036800A601A7013E08A8003F08A9004008AA0066
:100378004108AB004208AC004308AD004408AE0099
:100388004508AF008231A922813120002008BE0033
:100398002108BF002208C0002308C1002408C200A9
:1003A8002508C3002608C4002708C5002000460801
:1003B80047040319E029E129FA293E083F044004CB
:1003C80041044204430444044504031DEC29ED2977
:1003D8007C293D08803AB80080303802031DF62990
:1003E80001303C020318F929FA297C292000460823
:1003F800AC3EA4003A08A6003908A5003B088431A1
:10040800AD24813108002000D60048088600870105
:10041800403FCA00413FCB004A0884004B08850092
:100428001200253A031D192A1A2A902A480886001C
:1004380087010130810741310318810A2100A80191
:10044800A90103100030031801302000EB00FF3031
:10045800E900FF30EA00480886008701403FD700DE
:10046800413FD80057088400580885001200753AA3
:10047800031D3F2A402A862A490886008701010869
:100488008400850102308107003FCE00013FCF0084
:10049800D001D101D201D301D401D5015708013EC1
:1004A800CA000030583DCB004808860087014A083A
:1004B800C03F4B08C13F752A4E08B0004F08B10035
:1004C8005008B2005108B3005208B4005308B500F0
:1004D8005408B6005508B7005608813143218231C7
:1004E800A82A57088400580885000008CA00CB01CC
:1004F8004B08003A0319812A862A4A08753A0319D3
:10050800602A862A20004808860087010130810772
:1005180041310318810AA82A480886008701403F0C
:10052800CA00413FCB004A0884004B0885000008F8
:10053800CC00CD014C08F2004D08F3005608F40039
:10054800843113248231862A0800713086000030F5
:1005580087000830F00000301E00F00BB02A2000A1
:100568002008210422042304240425042604270443
:100578000319BF2AC02A1C2BF901F90ACF2AA03572
:10058800A10DA20DA30DA40DA50DA60DA70D01305B
:10059800F0007008F907A71FD22AD32AC32AF13519
:1005A800F20DF30DF40DF50DF60DF70DF80D270806
:1005B8002F02031DF92A26082E02031DF92A2508F1
:1005C8002D02031DF92A24082C02031DF92A2308E9
:1005D8002B02031DF92A22082A02031DF92A2108E1
:1005E8002902031DF92A20082802031CFC2AFD2AD7
:1005F8000E2B2008A8022108A93B2208AA3B2308A1
:10060800AB3B2408AC3B2508AD3B2608AE3B27088E
:10061800AF3B7114A736A60CA50CA40CA30CA20C16
:10062800A10CA00C0130F902031D1B2B1C2BD32A93
:100638007108A0007208A1007308A2007408A30042
:100648007508A4007608A5007708A6007808A70012
:100658000800F9007903031D322B332B382B74085B
:10066800F8007308F7003E2B73080F3EF7000030C0
:10067800743DF8001030FA007808F1007708F000AF
:100688008631B42683317903031D4B2B4C2B812BE8
:100698003F3023001406031D522B532B602B720886
:1006A800F500F60175089300760894009416141264
:1006B8008631E82683319A2B0130F7070030F83D60
:1006C80002307A020318692B6A2B932B1430950099
:1006D80074089200730891008631A8268331720845
:1006E800F500F60175082300930076089400941627
:1006F80014128631E8268331932B2300941E852B10
:10070800862B8F2B3F30140603198B2B8C2B8F2BAA
:100718001308F2009A2B0130F7020030F83B013041
:10072800FA027A08031D992B9A2B402B7208F500C0
:10073800F6017508F2007608F3000800200020088A
:10074800210422042304240425042604270403196D
:10075800AE2BAF2B022CF101F10ABE2BA035A10D57
:10076800A20DA30DA40DA50DA60DA70D0130F00037
:100778007008F107A71FC12BC22BB22B27082F0225
:10078800031DE02B26082E02031DE02B25082D0251
:10079800031DE02B24082C02031DE02B23082B0249
:1007A800031DE02B22082A02031DE02B2108290241
:1007B800031DE02B20082802031CE32BE42BF42B59
:1007C8002008A8022108A93B2208AA3B2308AB3B22
:1007D8002408AC3B2508AD3B2608AE3B2708AF3BB9
:1007E800A736A60CA50CA40CA30CA20CA10CA00C5B
:1007F8000130F102031D012C022CC22B2808A00095
:100808002908A1002A08A2002B08A3002C08A4008C
:100818002D08A5002E08A6002F08A70008007408B8
:100828000319172C182C1D2C7408031D1C2C1D2CA7
:10083800222C72088631FC268431632C7408083E09
:10084800860087011600010403192B2C2C2C4A2C36
:100858007408083E86008701403FF500413FF600D6
:100868007408023E86008701403FF700413FF800C8
:100878007808803AF9007608803A7902031D462CF8
:10088800750877020318492C4A2C632C74088600D3
:1008980087017408023E8400850100080107F500FD
:1008A8007508860001308700720881007408023ECE
:1008B800860087010130810741310318810A080049
:1008C8002000A4008631D526843173082000A300B7
:1008D8007208A2007108A1007008A0002408860010
:1008E80001308700403FF400413FF500423FF600E9
:1008F800433FF7002008F8002108F9002208FA0011
:100908002308FB007408F8027508F93B7608FA3BDF
:100918007708FB3B7B08031D9C2C7A08031D9C2C45
:10092800943078020330793B031C9B2C9C2CAB2C15
:10093800200024088600013087002008C03F2108D5
:10094800C13F2208C23F2308C33F0130AC2C00300E
:1009580008002000AB00A61BB22CB32CB82C26082C
:10096800AA002508A900BA2CA901AA01A701A80173
:10097800CC2C2030F2000030F30020002B08F400CB
:1009880084311324843101302000A7070030A83DAA
:100998002808803AFD002A08803A7D02031DD62CDB
:1009A80029082702031CD92CDA2CBD2C20002B087F
:1009B800FA0024088431E224843108002000A300CE
:1009C800A101A201F82C2008FB00FC017B08F20021
:1009D8007C08F3007A08F400843113248431013050
:1009E8002000A1070030A23D21082307FB007B0857
:1009F800860087010108A0002008031D042D052D8D
:100A0800E72C0800F2018030F3000730F4000030D2
:100A180083312D2385317208FD007D03031D152DBB
:100A2800162D242D22008C160630FC001330FB00F6
:100A3800AE30890B1D2DFB0B1D2DFC0B1D2D272DFD
:100A480022008C12182D7D080800083023009F0012
:100A580090309D0024309E0067309B009C01003040
:100A6800F0000030F10087310E2785310030F000AA
:100A78000030F1008731082785310030F000003060
:100A8800F1008731142785312000ED01080021008D
:100A9800CD006230CC004D08CE00D001D101D60186
:100AA800D70120006108DA006008D900CC30DB00EB
:100AB800CE30853187258531210050084D0720002B
:100AC800E600660886000130870081010800493485
:100AD8006E3469347434693461346C342034453488
:100AE8004534503452344F344D34203453347434F4
:100AF80061347434753473343A342034253475349D
:100B08000D340A3400342000DD005A08DF0059088B
:100B1800DE00962D5E30C8005B08C9005D08823192
:100B28000722853120005E0884005F0885001200D6
:100B3800031D9F2DA02D8E2DD901DA010800453403
:100B48004534503452344F344D343A3420344C34D4
:100B5800693467346834743420344F344634463446
:100B68002034733461347634653464340D340A3493
:100B78000034F3007308F200F20DF20D21001D0895
:100B88007206833972069D001D140032003200007F
:100B980021009D149D18D12DD22DCE2D1C08F100B9
:100BA8001B08F000080045344534503452344F34A3
:100BB8004D343A3420344C346934673468347434EE
:100BC80020344F344E3420347334613476346534F1
:100BD80064340D340A34003422008C011F302100A3
:100BE8008C00053023008C0024008C01210095170F
:100BF80025008C01373026008C003F3027008C0000
:100C0800043022009D000800152E71088400720827
:100C1800850000088631CB2686310130F107003087
:100C2800F23D71088400720885001200031D1D2E14
:100C38001E2E092E08004C344434523420344C34CF
:100C48006F34773420342D3420344C34693467348D
:100C58006834743420344F34463446340D340A34FE
:100C68000034533479347334743465346D34203437
:100C780049346E3469347434693461346C34693499
:100C88007A34653464340D340A3400344C344434D2
:100C9800523431343A342034253475342C342034E9
:100CA8004C344434523432343A3420342534753494
:100CB8000D340A34003421001508C039173895005E
:100CC800F63020009500F630EE000B118B1621301F
:100CD800F0000730F100873102278631080085319E
:100CE800F02586318631EF26863187311A278631FD
:100CF8008631DF26863186315F2686318531292582
:100D080086310800F4008631D526863174088600BD
:100D1800013087007008C03F7108C13F7208C23FA8
:100D28007308C33F08000B1120006E0895002100CE
:100D38005E085F040319A12EA22EA72E5F088A0061
:100D48005E080A0086310800553023009600AA3054
:100D5800960095149518B12EB22EAE2E15110800D6
:100D68007108230092007008910001309500151851
:100D7800BE2EBF2EBB2E08004C346934673468344D
:100D8800743420344F344E340D340A340034F000B7
:100D98002000111ED02ED12ECC2E700823009A00D0
:100DA800080021002708F3002608F2002508F100B2
:100DB8002408F0000800803021009E009F019B015C
:100DC8009C0101309D000800043023009500863105
:100DD800A826863108006830210099009801220071
:100DE80096010800640080010131890BF72E003458
:100DF800F10071088631CB26863108007108210080
:100E0800DF007008DE00080071082100DB007008B0
:100E1800DA00080071082100DD007008DC00080015
:100E280071082100D9007008D80008001630210088
:0C0E3800970008000A340034FF34080062
:020000040001F9
:08000000FF3FFF3FFF3FFF3F00
:04000E00FC3FFF3E76
:00000001FF
