:020000001928BD
:100008007E1480310B1F09280A2817282100111C8B
:100018000E280F2817282000111C13281428172829
:100028008131402180317E1009001A28F901FA0136
:10003800FB012000AB01AC01AD01AE017E10200038
:1000480061288031F9208031003A03192C282D28A5
:1000580055287B08031D31283228602882317522F3
:100068008031003A031939283A28422882317D2202
:1000780080310130FB0022008C166028200011100E
:1000880082318322803182314A228031FB01220071
:100098008C122030F6008130F70081318E218031BA
:1000A80060282000111082318322803182314A2257
:1000B8008031FB0122008C12080082310C22803131
:1000C8008B170B178131D32180318030F200073034
:1000D800F30082313622803173082000A8007208AC
:1000E800A70080312520803120000C0E890C0139B1
:1000F800A500A6012508A7002608A8008030F20060
:100108000730F3002808F5002708F40080319C2008
:10011800803103302000A6008A30A5005530890BB5
:100128009328A50B9328A60B932800327528192825
:1001380072082300910073080739920094309500E3
:1001480015158B13151555309600AA309600951481
:100158009518AF28B028AC2815118B177208910094
:100168007308073992007408930075083F399400A2
:10017800A030950015158B1355309600AA309600BF
:1001880095149518C828C928C52815118B17080073
:10019800F40022000C111130890BD0280000F50161
:1001A8007408F200750AD928F236890BD828720823
:1001B8000139F300F30DF30D22000C087306FB3927
:1001C80073068C001130890BE72800000130F50711
:1001D80008307502031CF128F228D42822000C15D7
:1001E8001130890BF528000008008131BC218031CD
:1001F80075082000A1007408A0008131A521803174
:1002080075082000A3007408A200A401033021028D
:10021800853003192002031C122913291E290330D3
:100228002302853003192202031C1B291C291E29BD
:100238000130A400240808004E346F3420344D34B3
:100248006F34743469346F346E3420346F347234DC
:1002580020344E346F3420344C3469346734683475
:1002680074342034503472346534733465346E34E5
:1002780074340D340A340034200011107A08F10067
:100288007908F0008131FB21813101302000AB0772
:100298000030AC3D00302C02F03003192B02031C57
:1002A800562957295D298231292281312000AB0145
:1002B800AC010800200099010B309700DC30960053
:1002C80011101708FA001608F900210011148630D9
:1002D800F2000230F3008231602281313530200093
:1002E8009800080022008C011B3021008C0003308C
:1002F80023008C0024008C012100951725008C0117
:10030800373026008C003F3027008C000430220054
:100318009D0008009B29760884007708850000085E
:100328008031CC2081310130F6070030F73D760866
:100338008400770885001200031DA329A4298F29AA
:100348000800013082311C228131823180228131C2
:10035800823159228131003A0319B329B429AC29D1
:100368008231662281317308F5007208F4000800B2
:10037800003082311C2281318231802281318231E8
:1003880059228131003A0319CA29CB29C32982315C
:10039800662281317308F5007208F4000800823182
:1003A8006C22813182318322813121008C12250017
:1003B8008C12031022008C1E03140318E429E72969
:1003C80022008C16E92922008C1208002000181D32
:1003D800EE29EF29F629181073089700720896007D
:1003E8001814FA297308970072089600080020006C
:1003F800181DFF29002A072A18107108970070088D
:10040800960018140B2A71089700700896000800C7
:1004180081317621823182315222823182317122B8
:10042800823182314122823181315E21823108005C
:10043800F3007308F200F20DF20D21001D08720698
:10044800833972069D001D140800200029082A041B
:1004580003192F2A302A352A2A088A0029080A006F
:10046800823108007208230091007308073992004E
:100478001408F3001308F2000800A03021009E00C1
:100488009F019B019C0101309D0008007A08F30040
:100498007908F2008131EA21823108006A302100AE
:1004A80099009801220096010800031021009D1C64
:1004B80003140030093D080073082000AA007208E0
:1004C800A900080021001C08F3001B08F20008001E
:1004D80021000C1122000C1508001630210097008D
:1004E8000800823179228231080020000C0E01397F
:1004F800080020001814080021009D14080020009E
:0805080018100800FB010800B7
:020000040001F9
:08000000FF3FFF3FFF3FFF3F00
:04000E00E43FFF3E8E
:00000001FF
