:040000000128FD2FA7
:100E0C00163021009700080023001E0C0139080041
:100E1C007708F1007608F00008007708F5007608EE
:100E2C00F40008007708F3007608F20008006A3036
:100E3C00210099009801220096010800F60020007C
:100E4C00111E292F2A2F252F760823009A0008001F
:100E5C0087314A27873187311D278731873106270C
:100E6C0087318731B727873108002000911E3F2F2B
:100E7C00402F3B2FFB0123009D1C452F462F482F55
:100E8C001D121D161908080022008C013E3021008D
:100E9C008C00033023008C0024008C01210095175A
:100EAC0025008C01373026008C003F3027008C0049
:100EBC00843022009D0008004D346F347434693442
:100ECC006F346E3420344434653474346534633494
:100EDC0074346534643420344C3445344434203414
:100EEC004F344E3420340D3400344E346F342034AF
:100EFC004D346F34743469346F346E34203444346C
:100F0C006534743465346334743465346434203437
:100F1C004C344534443420344F3446344634203435
:100F2C000D340034AD2F7708840078088500000854
:100F3C008731242787310130F7070030F83D87319E
:100F4C000A278731003A031DAC2FAD2FA52F770848
:100F5C008400780885001200031DB52FB62F992F39
:100F6C000800083023009F0090309D0024309E0024
:100F7C0067309B009C010030F6000030F700873191
:100F8C00132787310030F6000030F700873118271F
:100F9C0087310030F6000030F70087310E2787319B
:100FAC00FB01080087312E27873187313B2787319A
:100FBC00FA007A0887312427873120000C1DE72F8F
:100FCC00E82FF22F22000C146230F7008730F80063
:100FDC00873198278731DB2F22000C107B30F700EC
:100FEC008730F800873198278731DB2F0128FB01E8
:040FFC002000D82FCA
:020000040001F9
:08000000FF3FFF3FFF3FFF3F00
:04000E00E43FFF3E8E
:00000001FF
